:020000040800F2
:10000000904E0020710200081F370008ED310008F3
:100010001D370008290A0008F94400080000000004
:10002000000000000000000000000000B101000816
:10003000A90C0008000000000D020008313E000875
:100040008B0200088B0200088B0200088B0200085C
:100050008B0200088B0200088B0200088B0200084C
:100060008B0200088B0200088B0200088B0200083C
:100070008B0200088B0200088B0200088B0200082C
:100080008B0200088B0200088B02000800000000B1
:10009000000000000000000000000000AB0C0008A1
:1000A0008B0200088B0200088B0200088B020008FC
:1000B000F53E00088B0200088B0200088B02000846
:1000C0008B0200088B0200088B0200088B020008DC
:1000D0008B0200088B020008E144000800000000C9
:1000E0008B0200088B0200088B0200080000000051
:1000F0000000000000000000000000008B0200086B
:10010000000000008B0200088B0200088B02000830
:1001100000000000000000000000000000000000DF
:10012000210C00088B0200088B0200088B020008DB
:100130008B0200080000000000000000000000002A
:100140000000000000000000000000008B0200081A
:100150008B0200088B0200088B020008ED440008A7
:100160008B0200088B020008000000000000000065
:10017000000000000000000000000000000000007F
:10018000000000008B0200080000000000000000DA
:100190008B0200088B020008DFF810D000F09EFBF5
:1001A00000480047035C0008AFF30080904E002039
:1001B0002C4B19680868B0E8F04F80F30988BFF34A
:1001C0006F8F4FF0000080F311887047000000002F
:1001D00008480068006880F308884FF0000080F34A
:1001E000148862B661B6BFF34F8FBFF36F8F00DF25
:1001F00000BF00BF08ED00E0DFF80C00016841F42B
:1002000070010160704700BF88ED00E0EFF30980E6
:10021000BFF36F8F134B1A681EF0100F08BF20ED4D
:10022000108A20E9F04F106009B44FF0500080F3BD
:100230001188BFF34F8FBFF36F8F06F057FB4FF05E
:10024000000080F3118809BC19680868B0E8F04F15
:100250001EF0100F08BFB0EC108A80F30988BFF3BE
:100260006F8F704760000020EFF30580704700003B
:100270000648804706480047FEE7FEE7FEE7FEE740
:10028000FEE7FEE7FEE7FEE7FEE7FEE7E53E0008E5
:10029000990100082DE9F05F0546002092469B4633
:1002A00088460646814640241BE02846414647468C
:1002B000224600F0BAF953465A46C01A914110D36B
:1002C00011461846224600F0A1F92D1A67EB0108E5
:1002D0004F4622460120002100F098F917EB000953
:1002E0004E41201EA4F10104DFDC484631462A4677
:1002F0004346BDE8F09F40EA01039B0703D009E0B5
:1003000008C9121F08C0042AFAD203E011F8013B01
:1003100000F8013B521EF9D27047D2B201E000F85A
:10032000012B491EFBD270470022F6E710B5134699
:100330000A4604461946FFF7F0FF204610BD30B5C7
:1003400005462A460B4612F8010B13F8014B08B17B
:10035000A042F8D01CB1002802D06D1CF1E728465D
:1003600030BD2DE9FE4F804681EA0300C00F0C46E8
:10037000009021F0004123F00045B8EB0200A941B4
:1003800005D24046214690461C460B46024623F0C5
:100390000040104347D0270DC7F30A00C3F30A51AA
:1003A0000290401A019040286BDAC3F3130040F426
:1003B000801B0098924620B10023D2EB030A63EB26
:1003C0000B0B01985946C0F14002504600F01EF94F
:1003D00006460D4650465946019A00F036F910EB94
:1003E00008006141002487EA115284EAE7731A4346
:1003F00040D0009A62B3019A012A4FEA075215DCF5
:10040000001B61EB02014FF0004202EA0752CDE906
:100410000042001C41F5801132462B4600F06DF978
:1004200003B0BDE8F08F40462146F9E7001B61EBC1
:100430000201001C41F5801300185B412018A2F551
:10044000001747EB030140EAD570B6196D4111E082
:100450006D084FEA360645EAC0754FEA0752001BA1
:1004600061EB0201001C41F5801149084FEA3000A0
:100470000019514132462B4603B0BDE8F04F00F061
:100480002DB90098012240000023D0EB020263EB5B
:10049000E073009821464FEAE074B8EB000061EB8E
:1004A0000401E9E783F000435BE781F0004158E78E
:1004B0002DE9F04D81EA030404F0004B21F00045E2
:1004C00014464FF0000A23F0004150EA050220D004
:1004D00054EA01021DD0C5F30A570246C5F31303BF
:1004E000C1F31300C1F30A5640F4801543F480139E
:1004F000A7EB0608101BD64608F2FD3873EB050083
:1005000002D308F1010801E092185B41B8F1000F35
:1005100003DA00200146BDE8F08D00204FF4801181
:10052000064684460EE0171B73EB050705D3121B26
:1005300063EB050306434CEA010C49084FEA30001F
:1005400092185B4150EA0107EDD152EA030012D044
:1005500082EA040083EA0501084305D0101BAB4181
:1005600006D20122002306E000224FF0004302E001
:100570006FF0010253101AEB06004CEB085110EB20
:100580000A0041EB0B01BDE8F04D00F0A7B80EB535
:1005900040F2334102910021CDE900110A460B4699
:1005A00000F0ABF803B000BD01F0004330B421F01F
:1005B000004150EA010206D00A0DA2F56072C1F3B3
:1005C0001301002A02DC30BC00207047440F44EACB
:1005D000C104C100E01830BC00EBC25000F047B8C5
:1005E00030B50B46014600202022012409E021FA03
:1005F00002F59D4205D303FA02F5491B04FA02F500
:100600002844151EA2F10102F1DC30BD202A04DBD2
:10061000203A00FA02F1002070479140C2F1200315
:1006200020FA03F3194390407047202A04DB203A54
:1006300021FA02F00021704721FA02F3D040C2F102
:1006400020029140084319467047202A06DBCB1749
:10065000203A41FA02F043EAE07306E041FA02F37D
:10066000D040C2F12002914008431946704700294A
:10067000A8BF7047401C490008BF20F00100704728
:1006800010B4B0FA80FC00FA0CF050EA010404BF88
:1006900010BC704749B1CCF1200421FA04F411FADE
:1006A0000CF118BF012121430843A3EB0C01CB1D22
:1006B0004FEA00614FEA102042BF002010BC704793
:1006C00000EBC35010440029A4BF10BC7047401C6D
:1006D000490008BF20F0010010BC704710B5141E7F
:1006E00073F1000408DA401C41F1000192185B41EB
:1006F0001A4301D120F0010010BD2DE9F04D9246C2
:100700009B4611B1B1FA81F202E0B0FA80F22032D8
:100710009046FFF77BFF04460F4640EA0A0041EA95
:100720000B0153465A46084313D0114653EA0100C1
:1007300019D0C8F140025046FFF777FF05460E4634
:10074000504659464246FFF761FF084305D0012055
:1007500004E020463946BDE8F08D0020054346EA16
:10076000E0762C4337430A986305E40AA0EB0800BF
:100770000022FD0A44EA47540A3002D5002001460F
:10078000E9E7010510196941DDE9084500196941EA
:10079000BDE8F04DA2E72DE9FE4F81EA030404F025
:1007A000004421F0004100944FF0000B23F000437F
:1007B00050EA01045ED052EA03045BD0C3F30A544A
:1007C000C1F30A552C44A4F2F3340194A0FB025463
:1007D000C1F3130141F48011C3F3130343F48013F5
:1007E00001FB024400FB034E840A970A44EA815449
:1007F00047EA8357A4FB076802958D0A05FB078526
:100800004FEA932C04FB0C542705029D4FEA06582F
:1008100047EA1637B5EB08056EEB070C870E920E0C
:1008200047EA811742EA8312A7FB0201B6EB0B01EC
:1008300064EB00042B0D43EA0C335E1844EB1C50B0
:10084000DA465146E7FB0201C5F313044FEA0B33C6
:1008500043EA14534FEA0432019C43EA0603A4F12D
:100860000C040294009CCDE900B4FFF746FF03B0EE
:10087000BDE8F08F00200146F9E7C1F30A52C1F349
:10088000130140F2FF3341F480119A4202DA002052
:100890000146704740F233439A42A2F2334202DCEF
:1008A0005242FFF7C2BEFFF7B1BE000030B5041ED2
:1008B00071F1000404DB4FF00044404264EB01019D
:1008C000141E73F1000405DB1C464FF00043524236
:1008D00063EB0403994208BF904230BD064C074DBC
:1008E00006E0E06840F0010394E807009847103400
:1008F000AC42F6D3FFF754FCF484000814850008DA
:10090000464910B54A6822F440324A604A68436852
:100910001A434A6001684A6822F480724A6001689A
:100920004A68036942EA03224A6001684A6822F081
:1009300040724A6001684A6883681A434A600168E5
:100940008A6822F400628A6001688A68C3681A4370
:100950008A60816A6FF07062D14201688A6822F011
:1009600070628A6001688A680CD0836A1A438A6060
:1009700001688A6822F040528A6001688A68C36A06
:100980001A4301E022F040528A6001688A6822F02E
:1009900002028A6001688A68037E42EA43028A6032
:1009A00090F82010002901684A680FD042F40062D4
:1009B0004A6001684A6822F460424A6001684A68F5
:1009C000174C436A04EB43331A4301E022F40062FC
:1009D0004A600168CA6A22F47002CA620168CA6A7F
:1009E000838B104C04EB03531A43CA6201688A6874
:1009F00022F400728A6001688A6890F8303042EA16
:100A000043228A6001688A6822F480628A600168F1
:100A10008A68406942EA8020886010BD0023014056
:100A200000E0FFFF0000F0FFFEE7000070B50024CB
:100A300000F02AF8134D04E0641CE4B2012004F035
:100A400069FA4021284600F0DFFD012803D0642C1C
:100A500010D2002407E0642CEED30BE0641CE4B257
:100A6000012004F057FA4021284600F0CDFD18B1CE
:100A7000642C04D3012070BD642CEFD3FAE700206E
:100A800070BD00000000024000B587B01421684628
:100A9000FFF74AFC09480021026842F001020260A7
:100AA0000068029100F0010005904020CDE90001AE
:100AB0006946034800F0B8FC07B000BD303802407A
:100AC0000000024000B587B014216846FFF72CFCF7
:100AD0000B480021026842F001020260006800F049
:100AE00001000590402000900120CDE90101022085
:100AF00003906946034800F097FC07B000BD000072
:100B0000303802400000024010B5FFF7DBFF012241
:100B10004021044800F07DFD00F068F8BDE8104079
:100B2000FFF784BF0000024070B50024134D04E0BD
:100B3000641CE4B2012004F0EDF94021284600F0E5
:100B400063FD012801D1642CF2D3002404E0641C6D
:100B5000E4B2012004F0DEF94021284600F054FD03
:100B600008B9642CF3D3282004F0D4F94021284696
:100B700000F04AFD012800D0002070BD00000240B6
:100B800070B5002004464006050EFFF7CDFF641C3B
:100B90002843E4B2082CF6D370BD2DE9FC410D4684
:100BA000064600F023F8FFF741FF10B10120BDE831
:100BB000FC8100246F46FFF7E3FF3855641CE4B264
:100BC000052CF8D39DF800109DF801009DF8033026
:100BD0000A189DF8020003441A449DF80430D2B26A
:100BE0009A4201D1297030700020E0E710B5FFF77C
:100BF00069FF0A4C00224021204600F00AFD44F61D
:100C0000206004F087F901224021204600F001FD18
:100C1000BDE810401E2004F07DB900000000024035
:100C2000014800F08BBA0000680300200168182317
:100C3000CAB2103AB2FBF3F2054B6FF30901032A73
:100C40009B5CC36500D9091D81650846704700009B
:100C5000FC6C000810B5014600208B698A6A4FF0D1
:100C6000C07453B1B3F5005F15D072B1012A0CD036
:100C7000022A0AD0032A09D104E01AB1012A06D0B7
:100C8000022A03D1C96AC90100D5012010BDC96A71
:100C9000A142FAD010BD002AF7D0012AF2D0022AD0
:100CA000F3D0032AF3D010BD7047202000F0B0BB72
:100CB00072B6FEE778B50024009490F83C20012A33
:100CC00019D0012280F83C200A6807230568092A08
:100CD00013D9EE680A3A02EB420293409E43EE605B
:100CE0000B788A680A3B03EB43039A400368DD688C
:100CF0002A43DA6010E0022078BD2E6902EB42023E
:100D000093409E432E610B788A6803EB43039A401D
:100D100003681D692A431A614A681F23072A13D2F0
:100D200005686E6B521E02EB820293409E436E6317
:100D30000A8893B20A79521E02EB8202934002683B
:100D4000556B2B43536327E005680D2A12D22E6B97
:100D5000D21F02EB820293409E432E630B790A88D6
:100D6000DB1F92B203EB83039A4003681D6B2A4397
:100D70001A6311E0EE6A0D3A02EB820293409E4341
:100D8000EE620B790A880D3B92B203EB83039A4023
:100D90000368DD6A2A43DA621B4B0568194A9D42E3
:100DA0000AD10D68122D07D1556825F4000555604C
:100DB000556845F48005556005689D421DD1134D69
:100DC0000B68AB4201D0112B17D1536823F4800379
:100DD0005360536843F4000353600968A9420CD17F
:100DE0000B490C4A0968B1FBF2F101EB81014900A2
:100DF00000E0491E00910029FBD180F83C40002012
:100E000078BD0000002301400020014012000010C6
:100E10003000002040420F000068C06C704770B581
:100E200004004FF0000503D0206C002610B107E04D
:100E3000012070BD204600F01DF8666484F83C6017
:100E4000206CC00610D4206C20F4885040F00200C2
:100E500020642046FFF754FD6664206C20F00200F9
:100E600040F00100206400E0012584F83C60284641
:100E700070BD000070B586B0064614216846FFF7C5
:100E800053FA1D493068884234D11C480025016856
:100E900041F480710160006800F48070059017488B
:100EA0001438016841F0010101600068694600F0F2
:100EB00001000590012000900320CDE901051048B4
:100EC00000F0B2FA104C0F48C4E900050015A56007
:100ED000C4E90350400060618000A0614011C4E992
:100EE00007052046656200F0F9F908B1FFF7E0FE5A
:100EF000B463A66306B070BD0020014044380240D0
:100F00000000024010640240680300202DE9F04117
:100F1000044600680D4681684FF0000749050BD56F
:100F20008068C00508D5206C40F02000206484F85B
:100F30003C700120BDE8F08100F070FB064613E034
:100F4000681C11D025B100F069FB801BA8420BD9A9
:100F500020680068800707D4206C40F004002064FB
:100F600084F83C700320E5E7206800688007E7D537
:100F700021686FF012000860206C40F4007020645B
:100F80002068816811F0405F13D1217E89B9C16A60
:100F900011F4700F02D0806840050AD4206C20F450
:100FA00080702064206CC00403D4206C40F00100E9
:100FB00020640020BEE7000018B50021009190F8E1
:100FC0003C20012A07D0012280F83C200268936867
:100FD000DB0702D011E0022018BD936843F0010343
:100FE0009360244A244B1268B2FBF3F202EB4202F4
:100FF00000E0521E0092002AFBD102689368DB07D2
:101000002ED0036C40F20164A34343F48073036465
:1010100053685B0505D5036C23F4005343F48053F8
:101020000364036CDB0404D5436C23F006034364C0
:1010300000E0416480F83C1010496FF02203136017
:1010400049680068C90602D00D49884210D18168FC
:1010500011F0405F0CD1816841F08041816007E070
:10106000016C41F010010164416C41F001014164E7
:10107000002018BD3000002040420F000023014036
:10108000002001402DE9F0410446876D00F0C6FACA
:10109000064694F835000025022806D080206065B9
:1010A00084F834500120BDE8F0812068016821F007
:1010B000160101602068416921F080014161206CC6
:1010C00008B9A06C20B12068016821F00801016016
:1010D0002068016821F0010101600CE000F09EFA37
:1010E000801B052807D920206065032084F835007F
:1010F00084F83450D7E720680068C007EED194F830
:101100005C103F208840B860012084F8350084F8E6
:1011100034500020C7E790F83510022903D0802111
:10112000416501207047052180F83510006801688D
:1011300021F0010101600020704700002DE9F84313
:1011400004464FF00009CDF8009063484FF4165163
:10115000A56D0068B0FBF1F72E6894F85C100820CC
:1011600000FA01F131420FD021680A6852070BD50D
:101170000A6822F004020A6094F85C108840A860B3
:10118000606D40F00100606594F85C104FF001085C
:1011900008FA01F0304208D021684969090604D5EF
:1011A000A860606D40F00200606594F85C10042057
:1011B0008840304208D021680968890704D5A860B2
:1011C000606D40F00400606594F85C101020884069
:1011D000304218D021680968090714D5A860206832
:1011E0000168490304D50068000308D5A16C07E035
:1011F0000168C90503D4016821F008010160216C70
:1012000009B12046884794F85C102020884030427D
:1012100031D021680968C9062DD5A86094F8350039
:1012200005282068016806D0490347D500680003F7
:101230001DD4616C1CE021F0160101602068416939
:1012400021F080014161206C08B9A06C20B12068B8
:10125000016821F00801016094F85C103F2088408B
:10126000A86084F8358084F83490216D1FE0E16B2C
:1012700009B120468847606D00282BD0606DC007FB
:1012800014D0052084F835002068016821F00101A0
:1012900001600098401C0090B84203D820680068A4
:1012A000C007F6D184F8358084F83490E16C0029C9
:1012B00010D001B02046BDE8F04308470168C905D9
:1012C000D5D4016821F01001016084F8358084F8DC
:1012D0003490CCE7BDE8F883300000202DE9F041E0
:1012E000044600F09BF906465CB1022084F8350004
:1012F000002584F834502068016821F00101016064
:101300000DE00120BDE8F08100F088F9801B052880
:1013100005D920206065032084F83500F2E72068B5
:101320000068C007F0D12268116820480140D4E964
:1013300001031843D4E90336334318436369184360
:10134000A3691843E3691843236A18430843616A91
:10135000042903D1D4E90B13194308431060206812
:101360004069666A20F0070130460E4301270428D1
:101370000CD1A06A0643E06A40B12046FFF76AFC40
:1013800020B14020606584F83570BAE72068466176
:101390002046FFF74BFC94F85C203F219140816090
:1013A000656584F835700020ACE700003F8010F0E0
:1013B00070B5044600F032F90546601C02D00448BE
:1013C0000078044400F02AF9401BA042FAD370BD13
:1013D0002400002010B50C4A0C4C10280BD02028FB
:1013E00008D12021104600F00FF9002802D1206911
:1013F000401E206110BD1021104600F005F90028A4
:10140000F8D12069401CF4E70008024000000020E9
:10141000044910B50A68024202D00860FFF7DAFFFB
:1014200010BD0000143C01402DE9F84FDFF8B8A1D1
:101430000022012403254FF00F090AF1040BAAF141
:10144000040E00BF0B6804FA02F63340B34273D1B6
:101450000F7907F00307012F01D0022F16D18768FB
:101460004FEA420805FA08FC27EA0C07D1F80CC03D
:101470000CFA08FC4CEA070CC0F808C04768B743F0
:101480000E79C6F3001696403E4346600E79F64349
:10149000B6070DD0C768560005FA06FC27EA0C0708
:1014A000D1F808C00CFA06FC4CEA070CC0F80CC0D6
:1014B0000E7906F00306022E10D1D60800EB86083E
:1014C000D8F8206057074FEAD76C09FA0CF7BE43EB
:1014D0000F6907FA0CF73743C8F8207006684FEA1F
:1014E000420C05FA0CF7BE430F7907F0030707FA21
:1014F0000CF7374307604E6816F4403F6DD03B4E03
:10150000376847F480473760366822F0030706F4EF
:1015100080460096364E07EB060CDCF80868970705
:101520003F0F09FA07F826EA0806DFF8C8804045A9
:1015300003D14FF000081EE04FE0DFF8BC804045CB
:1015400002D14FF0010816E0DFF8B080404502D12B
:101550004FF002080FE0DFF8A880404502D14FF0BD
:10156000030808E0DFF89C80404502D14FF00408F2
:1015700001E04FF0070808FA07F848EA0608CCF837
:101580000888DAF800605746D1F804C09E435FEA45
:10159000CC2C00D51E433E60DBF800605F46D1F8DE
:1015A00004C09E435FEA8C2C00D51E433E60DEF8EB
:1015B00000607746D1F804C09E435FEA8C3C00D5BA
:1015C0001E433E60084F083F3E68D1F804C09E436A
:1015D0005FEACC3C00D51E433E60521C102AFFF44B
:1015E00031AFBDE8F88F0000083C014044380240AC
:1015F00000300140000002400004024000080240A8
:10160000000C0240001002400069084000D0012098
:1016100070470AB1816170470904FBE7014880689F
:10162000704700002400002070B5040025D094F815
:101630003D00002520B984F83C50204600F0B8F861
:10164000242084F83D002068016821F00101016038
:101650002068016841F4004101602068016821F4BC
:101660000041016000F012FB4D4A6168914201D8CF
:101670004C4900E04C49884201D2012070BD4B49E1
:101680002368B0FBF1F15E6826F03F060E435E6012
:101690006368934206D94FF4967359434FF47A73B3
:1016A000B1FBF3F12368491C1E6A26F03F06314363
:1016B00019626168914210D84900401EB0FBF1F2F6
:1016C000521CC2F30B02042A01D2042022E0B0FB18
:1016D000F1F0401CC0F30B001CE0A268F2B301EB78
:1016E000C10303EB0116431EB3FBF6F35B1C43F48B
:1016F00080431B0549D092B301EBC10202EB0111FB
:10170000401EB0FBF1F0401CC0F30B0040F48040E1
:1017100040F400402168CA694CF6FF739A431043B5
:10172000C861D4E9071001432068026822F0C002B2
:1017300011430160D4E9030101432068826848F243
:10174000FF339A4311438160D4E9050108432168BE
:10175000CA6822F0FF021043C86001E00EE016E004
:101760002068016841F0010101602564202084F8AF
:101770003D00256384F83E50002070BD01EB41061A
:10178000431EB3FBF6F35B1CB3E70120C2E701EB9A
:101790004101401EB0FBF1F0401CC0F30B00B7E765
:1017A000A086010080841E0000093D0040420F0019
:1017B000F0B587B0044614216846FEF7B5FD1D4913
:1017C0002068884233D11C480024016841F004019C
:1017D0000160016801F004010591016841F0010117
:1017E00001600068122500F0010005904FF40070C0
:1017F000CDE9000502AA0326042782E8D000694645
:101800000E48FFF711FEB801CDE9000502AA6946AE
:1018100082E8D0000A48FFF707FE07481030016849
:1018200041F400010160006800F40000059007B079
:10183000F0BD0000005C004030380240000802406B
:101840000000024070B5040013D021684CF6CC4073
:101850000860216845F255500860D4E900014160F4
:101860002168A0688860FFF7D9FE054641F60106A9
:101870000DE0012070BD00BFFFF7D0FE401BB0425D
:1018800005D92068C068800701D0032070BD20689A
:10189000C0688007F0D121684AF6AA2008600020BD
:1018A00070BD000002488168027811448160704771
:1018B000240000200B4810B5016841F4007101605C
:1018C000016841F480610160016841F48071016048
:1018D000032000F073F80F2000F006F800F024F861
:1018E000002010BD003C024070B50D4D04464FF481
:1018F0007A712878B1FBF0F00A490968B1FBF0F081
:1019000000F000FD48B9102C07D200222146501EDD
:1019100000F034F800206C6070BD012070BD000044
:1019200024000020300000200C4882B0016841F4FF
:1019300080410160006800F4804000900748001F6B
:10194000016841F0805101600068002200F0805081
:1019500000900F21901E02B000F010B844380240F1
:10196000002809DB00F01F0201219140400980009E
:1019700000F1E020C0F8001170470000F0B40E4BF9
:101980001B680C46C3F30223C3F10705042D00D9DD
:101990000425191D072901D2002300E0DB1E0126C2
:1019A00006FA05F1491E214099409E40761E1640D8
:1019B0003143F0BC02F0C6BD0CED00E0064900F07A
:1019C000070208684FF6FF03184040EA0220034A66
:1019D00010430860704700000CED00E00000FA05BD
:1019E000BFF34F8F05480168054A01F4E0611143D8
:1019F0000160BFF34F8F00BFFDE700000CED00E07A
:101A00000400FA052DE9F843044600684FF0010987
:101A1000C1074FF0000601D1400729D5DFF820812A
:101A2000C8F86860FFF7FAFD0746464D05E000BFBD
:101A3000FFF7F4FDC01B022859D828680001F7D42D
:101A4000A068217B800140EA0170616808433D493C
:101A500084310860C8F86890FFF7E0FD074604E0AD
:101A6000FFF7DCFDC01B022841D828680001F7D52C
:101A70002078800752D533484030016841F08051CA
:101A800001600068304D00F080500090286840F4FC
:101A900080702860FFF7C2FD074604E0FFF7BEFD37
:101AA000C01B022823D82868C005F7D5254D7035FE
:101AB000286810F4407020D0218A01F440718142DE
:101AC0001BD02868214920F44070C1F800900E60B6
:101AD00028602868C00710D0FFF7A0FD064641F235
:101AE000883707E0FFF79AFD801BB84202D9032030
:101AF000BDE8F88328688007F4D521691148C1F34F
:101B000001220830032A12D0016821F4F811016083
:101B10002868218AC1F30B01084328602078000758
:101B200003D50B49207DC1F8E0010020E0E7026801
:101B3000084B22F4F81219400A430260E8E700005B
:101B4000000047420038024000700040400E47420B
:101B500000104742FFFCFF0F2DE9F0470E4605003D
:101B600065D0DFF81481D8F80000F7B200F0070064
:101B7000B04207D288F80070D8F8000000F00700E3
:101B8000B04254D128683D4C810712D5400703D597
:101B9000206840F4E05020602878000703D52068D2
:101BA00040F4604020602068A96820F0F0000843FD
:101BB00020602878C0072DD030496868083901288E
:101BC00012D0022813D0032811D0096889070029F0
:101BD0002DDA216821F0030101432160FFF71EFD8A
:101BE000814641F2883A0EE009688903EFE7096807
:101BF0008901ECE7FFF712FDA0EB0901514502D97D
:101C00000320BDE8F0872068696800F00C00B0EBA5
:101C1000810FEFD1D8F80010404601F00701B14222
:101C200007D90770006800F00700B04201D001201A
:101C3000E7E72878400705D52068E96820F4E050F8
:101C4000084320602878000706D52068296920F419
:101C5000604040EAC100206000F038F82168084A7E
:101C6000C1F30311515CC84006490860064800688A
:101C7000FFF73AFE0020C4E7003C0240083802406B
:101C8000046D0008300000202800002004480549A9
:101C900000680968044AC1F38221515CC84070475A
:101CA0003000002008380240146D0008044805493F
:101CB00000680968044AC1F34231515CC84070476A
:101CC0003000002008380240146D0008154810B597
:101CD000006810F00C02144813D01449042A0FD0E5
:101CE000082A0ED10F4C241F2268236802F03F02FD
:101CF0005B0207D52068C0F38810A0FB010106E055
:101D0000084610BD2168C1F38811A1FB0001002322
:101D1000FEF7C0FA2168C1F30141491C4900B0FB3C
:101D2000F1F010BD083802400024F40040787D0135
:101D30002DE9F84F04006ED02078DFF84C93C007EF
:101D4000A9F104054AD009F104000168C1F3810139
:101D5000012908D00068C0F3810002280AD1D9F80F
:101D60000000400206D52868800337D56068002847
:101D7000E1D033E06068B0F5803F10D0B0F5A02F1F
:101D8000286810D020F480302860286820F4802053
:101D900028606068A8B1FFF741FC06460DE028689E
:101DA00040F48030F4E740F480202860F7E700BF7B
:101DB000FFF734FC801B642873D828688003F7D5AC
:101DC0000CE0FFF72BFC064605E000BFFFF726FC02
:101DD000801B6428F0D828688003F7D42078DFF8C7
:101DE000AC8280074FF0000A3ED5A748001D01686D
:101DF00011F00C0F08D00068C0F3810002280BD14D
:101E0000D9F80000400207D42868800716D5E0689A
:101E1000012800D112E033E1E068B8B10120C8F830
:101E20000000FFF7FBFB064605E000BFFFF7F6FBEF
:101E3000801B0228C0D828688007F7D52868216948
:101E400020F0F80040EAC10028600DE0C8F800A0CA
:101E5000FFF7E4FB064604E0FFF7E0FB801B0228E7
:101E60001FD828688007F7D42078000722D5864F2E
:101E700087486169703771B101210160FFF7CEFBBE
:101E8000064604E0FFF7CAFB801B022809D8386821
:101E90008007F7D50EE0C0F800A0FFF7BFFB0646AD
:101EA00005E082E0FFF7BAFB801B02287DD8386886
:101EB0008007F7D42078400768D5DFF8CCB1002739
:101EC0000BF13C0BDBF80000C0000BD4DBF800107A
:101ED00041F08051CBF80010DBF80000012700F042
:101EE000805000906B4E3068C00510D4306840F4CC
:101EF00080703060FFF792FB009005E0FFF78EFBEB
:101F00000099401A022850D83068C005F6D55E4EB8
:101F1000A0686C3601280FD00528306810D020F05A
:101F200001003060306820F004003060A068B8B173
:101F3000FFF774FB00900FE0306840F00100F4E719
:101F400040F004003060F7E7FFF768FB0099411AA2
:101F500041F28830814266D830688007F4D50EE0BF
:101F6000FFF75CFB009007E0FFF758FB0099411A70
:101F700041F28830814256D830688007F4D42FB1BE
:101F8000DBF8001021F08051CBF80010A069C8B335
:101F90003D49091D0968C1F3810102294AD002287F
:101FA000504607D0C8F8600000E03CE0FFF736FB81
:101FB00004463BE04746C8F86000FFF72FFB0646A3
:101FC00005E000BFFFF72AFB801B02282BD82868FA
:101FD0008001F7D4D4E907010843A16A2E4A4908D1
:101FE00002EB0141626A41EA8211084394F82C1025
:101FF00040EA0161C9F8001001203866FFF70EFBC6
:10200000044606E03EE000BFFFF708FB001B022885
:1020100009D828688001F7D534E000BFFFF7FEFA41
:10202000001B022802D90320BDE8F88F2868800130
:10203000F4D427E00128F7D0D9F80000E26900F4D1
:10204000800191421CD1226A00F03F01914217D1D8
:1020500047F6C071626A0140B1EB821F10D1A26ADB
:102060004FF0FF3300F4403103EB5202B1EB024F6B
:1020700006D194F82C1000F07060B0EB016F01D025
:102080000120D1E70020CFE704380240000047429A
:10209000800E4742007000400000FFFF10B50400B2
:1020A00002D0607F10B106E0012010BD0020207733
:1020B000204600F041F8022060772068C168C943DB
:1020C000C90632D5CA2141622168532048622046A0
:1020D00001F052FD20BB20688168164A11408160E2
:1020E0002168886862681043D4E904231A431043C6
:1020F00088602168E068086120680169228941EAF6
:1021000002410161204601F05BFD48B921680A6C7B
:1021100022F480220A6421680A6CA3691A430A64C3
:102120002268FF21516208B110BD002001216177B2
:1021300010BD0000BFFF8FFF10B586B00446182108
:102140006846FEF7F1F80949206888420CD1022060
:102150000090000204906846FFF754FC08B1FEF7B7
:10216000A7FD03490120086006B010BD002800400B
:102170003C0E474270B50446007F0B46012819D03B
:102180000126267702206077B2B19878D97840EAA4
:10219000014558781978000240EA4130054321682A
:1021A000CA204862216853204862204601F0E4FCBE
:1021B000D0B122E0022070BD5878C10603D500F0EE
:1021C000EF000A305870D87801F0CAFC0204587841
:1021D00001F0C6FC42EA0022987801F0C1FC0243FB
:1021E000187842EA4035DAE707480540206845603C
:1021F000204601F0E5FC00B966772268FF215162B4
:102200000021217770BD00003FFFFF002DE9F04164
:102210000446007F0D46012823D04FF0010884F8C2
:102220001C80022060772068002780684FEA4060A9
:10223000D2B1002800DBEF70A878297840EA014687
:102240006878E978000240EA815006432168CA2094
:102250004862216853204862204601F08DFCB8B1E5
:102260002CE00220BDE8F081002800DBEF70287828
:1022700001F076FC0204687801F072FC42EA002268
:10228000A87801F06DFC0243E87842EA8056DDE769
:102290000D480640206806602068816821F480218E
:1022A0008160D5E90301084321688A68104388608A
:1022B000204601F085FC08B984F81D802268FF21C2
:1022C00051622777CEE700007F7F7F0070B504461C
:1022D0000B482168C860FFF7A1F905464FF47A76EC
:1022E00007E000BFFFF79AF9401BB04201D9032075
:1022F00070BD2068C0688006F4D5002070BD000065
:102300005F3F010010B5401EB0F1807F01D3012076
:1023100010BD4FF0E02460610F21601702F012F948
:102320000020A06107202061002010BD7047704789
:1023300070B590F83C20012A2CD0012480F83C4054
:10234000022280F83D2003685A689D6822F07006DA
:102350000A6832435A60104B02689A420ED0B2F1BA
:10236000804F0BD00D4B9A4208D00D4B9A4205D0AE
:102370000C4B9A4202D00C4B9A4204D1496825F08A
:1023800080031943916080F83D40002180F83C10A3
:10239000084670BD022070BD0000014000040040EE
:1023A00000080040000C00400040014010B504004F
:1023B00003D094F83D0010B107E0012010BD0020CB
:1023C00084F83C00204600F01FF8022084F83D000D
:1023D000211D206801F094FD012084F8460084F856
:1023E0003E0084F83F0084F8400084F8410084F8FF
:1023F000420084F8430084F8440084F8450084F8DF
:102400003D00002010BD000070B58CB004461421C2
:102410006846FDF789FF182105A8FDF785FF2168AB
:1024200000242C48B1F1804F0AD02B4A914219D197
:10243000016841F002010160006800F002001BE049
:10244000016841F0010101600068002200F0010014
:102450000B9009211C20FFF791FA1C20FFF780FA4E
:102460000CB070BD1D4A914208D1016841F00401D1
:102470000160006800F004000B90F1E71848814209
:10248000EED14615022505A809960595FFF7BAFA7B
:1024900008B1FEF70DFC0F48001D016841F48021D2
:1024A0000160006800F480200B900A481038016831
:1024B00041F0020101600068009600F002000B90FC
:1024C000CDE901540320CDE9034069460548FEF7F4
:1024D000ABFFC5E740380240000400400008004060
:1024E000004801400004024090F83D10012901D04D
:1024F00001207047022180F83D1000680E49884293
:102500000ED0B0F1804F0BD00C49884208D00C4956
:10251000884205D00B49884202D00B49884204D139
:10252000816801F00701062903D0016841F001012B
:1025300001600020704700000000014000040040DE
:1025400000080040000C00400040014090F83D10A1
:10255000012901D001207047022180F83D10016857
:10256000CA6842F00102CA6000680E4988420ED073
:10257000B0F1804F0BD00C49884208D00B498842FB
:1025800005D00B49884202D00A49884204D18168AB
:1025900001F00701062903D0016841F00101016043
:1025A0000020704700000140000400400008004087
:1025B000000C00400040014001680A6A41F211131A
:1025C0001A4207D10A6A9B101A4203D10A6822F004
:1025D00001020A60012180F83D100020704770B5AB
:1025E000044690F83C000025012817D0012684F805
:1025F0003C60022084F83D002068826822F0770267
:1026000022F47F4282600868502838D00DDC2028F0
:102610004FD005DC90B3102811D14AE0022070BDE4
:10262000302846D040280AD13BE060282FD07028BF
:102630000DD0B0F5805F03D0B0F5005F12D001255A
:1026400084F83D60002084F83C00284670BDCB68CB
:10265000D1E90121206801F0B0FC2068816841F0D7
:10266000770109E0CB68D1E90121206801F0A5FCE0
:102670002068816841F480418160E1E719E0CA681F
:102680004968206801F04EFD5021206806E0CA68C4
:102690004968206801F08EFD6021206801F097FCF8
:1026A000CEE7CA684968206801F03CFD40212068F7
:1026B000F4E7226801461046F0E770472DE9F04143
:1026C000054690F83C0000260C46012810D0012059
:1026D00085F83C0072B1042A1CD0082A2CD00C2AA0
:1026E00050D00126002085F83C003046BDE8F0813E
:1026F0000220FBE7D4E90012E368286801F024FD1A
:102700002868816921F00C01816128688169A268CB
:1027100011430FE0D4E90012E368286801F05CFD82
:102720002868816921F44061816128688169A26813
:1027300041EA02218161D5E72868D4E9002C277B92
:10274000036A016A21F480710162C16923F4206384
:1027500021F0030141EA0C0121F0F00C39074FF49C
:1027600020674CEA116107EA02221A43C161026242
:102770002868C16921F00C01C1612868C169A2689B
:1027800011432BE02868D4E90021E768036AD0F8F8
:1027900020C02CF4805CC0F820C0D0F81CC023F40A
:1027A00020432CF4407C4CEA012121F4704C4FF67C
:1027B000FF7101EA07314FF4204741EA0C0107EAB3
:1027C00002321A43C16102622868C16921F4406182
:1027D000C1612868C169A26841EA0221C16181E73B
:1027E00010B5040003D094F83D0010B107E00120BB
:1027F00010BD002084F83C00204600F01EF80220A6
:1028000084F83D00211D206801F07AFB012084F846
:10281000460084F83E0084F83F0084F8400084F8C5
:10282000410084F8420084F8430084F8440084F8AE
:10283000450084F83D00002010BD70472DE9F041AF
:1028400004460068C66805694FF00007A90713D55C
:10285000B10711D5F91E0161012020772068806938
:102860008007204602D0FFF728FF04E000F0BAF806
:10287000204600F04CF92777680716D5700714D565
:1028800021686FF0040008610220207720688069C9
:1028900010F4407F204602D0FFF70FFF04E000F065
:1028A000A1F8204600F033F92777280715D530071F
:1028B00013D521686FF00800086104202077206894
:1028C000C0698007204602D0FFF7F7FE04E000F061
:1028D00089F8204600F01BF92777E80616D5F006A0
:1028E00014D521686FF01000086108202077206857
:1028F000C06910F4407F204602D0FFF7DEFE04E0FE
:1029000000F070F8204600F002F92777E80708D0B9
:10291000F00706D021686FF001000861204600F042
:102920004FF9280608D5300606D521686FF08000DB
:1029300008612046FFF7FAFC680608D5700606D540
:1029400021686FF040000861204600F049F9A806B0
:102950000AD5B00608D521686FF02000086120462E
:10296000BDE8F041FFF7E3BCBDE8F08170B586B08B
:10297000044614216846FDF7D7FC25680022164955
:10298000022301241548B5F1804F15D0144EB542ED
:1029900010D10D6845F002050D6009680094CDE97D
:1029A000013201F00201CDE9043103924FEA0D0139
:1029B000FEF73AFD06B070BD0D6845F002050D60EA
:1029C000096801F00201059108210091CDE9013269
:1029D000CDE903246946EBE73038024000040240A9
:1029E00000040040704770B5044690F83C00002693
:1029F0000D4601280FD0012084F83C006AB1042A5A
:102A00001DD0082A2FD00C2A3FD00126002084F8A0
:102A10003C00304670BD022070BD206801F0E0FA35
:102A20002068816941F0080181612068816921F095
:102A300004018161206881692A69114311E02068DD
:102A400001F0F6FA2068816941F400618161206833
:102A5000816921F480618161206881692A6941EA84
:102A600002218161D2E7206801F00EFB2068C16974
:102A700041F00801C1612068C16921F00401C16110
:102A80002068C1692A69114311E0206801F028FB20
:102A90002068C16941F40061C1612068C16921F405
:102AA0008061C1612068C1692A6941EA0221C1616E
:102AB000ACE710B5040003D094F83D0010B107E076
:102AC000012010BD002084F83C00204600F01EF8D4
:102AD000022084F83D00211D206801F011FA012038
:102AE00084F8460084F83E0084F83F0084F84000F3
:102AF00084F8410084F8420084F8430084F84400DC
:102B000084F8450084F83D00002010BD70477047F0
:102B100010B50446022249B104290ED0082913D069
:102B200094F84100012816D0012010BD94F83E0011
:102B30000128F9D184F83E200FE094F83F000128E5
:102B4000F2D184F83F2008E094F840000128EBD14E
:102B500084F8402001E084F841200122206801F03F
:102B60001FFA12492068884203D1426C42F40042A5
:102B70004264206888420ED0B0F1804F0BD00C49DF
:102B8000884208D00B49884205D00B49884202D0C0
:102B90000A49884204D1816801F00701062903D05F
:102BA000016841F001010160002010BD00000140FA
:102BB0000004004000080040000C004000400140BC
:102BC000054910B5884206D1044802F0DBFFBDE894
:102BD000104002F0ABBE10BD480400201C000020D5
:102BE0007047704770470000F8B5016804460868F0
:102BF000CA684B6910F00F0F4FF0000559D003F071
:102C0000010602F49077374365D0C10705D0D1059E
:102C100003D5616C41F001016164410705D5D90715
:102C200003D0616C41F002016164810705D5D907C9
:102C300003D0616C41F004016164010707D502F023
:102C40002001314303D0616C41F008016164616C83
:102C500000293AD0800604D5900602D5204601F01E
:102C600004FB20684069616CC0F38010090700D440
:102C700060B3204601F0D2FA20684069400621D5B1
:102C80002068143050E8001F21F0400140E8001295
:102C9000002AF5D1E06BA8B172490165E06BFEF73F
:102CA0003AFA002811D0E06B016D01B0BDE8F040A8
:102CB000084783060FD593060DD52046BDE8F8409A
:102CC00001F0D3BA2046FFF78DFFF8BD2046FFF78D
:102CD00089FF6564F8BD266B2023012E7ED1C606D0
:102CE0007CD5D6067AD508684868009048694FF0C8
:102CF000020640064DD5E26B106840684FF48077BD
:102D00000004000C3AD0A18D814237D9E085D0690A
:102D1000B8422DD020680C3050E8001F21F480719B
:102D200040E80012002AF5D12068143050E8001F56
:102D300021F0010140E80012002AF5D1206814308A
:102D400050E8001F21F0400140E80012002AF5D1B0
:102D500084F84230256320680C3050E8001F21F0D1
:102D6000100140E80012002AF5D1E06BFEF78AF965
:102D70006663A08DE18D401A81B206E0A18D81428B
:102D8000A8D1D069B842A5D166632046FFF729FFD4
:102D9000F8BDA08DE18D401A81B2E08D0028F7D0FA
:102DA0000029F5D020680C3050E8002F22F49072F2
:102DB00040E80027002FF5D12068143050E8002F9C
:102DC00022F0010240E80027002FF5D184F84230BC
:102DD000256320680C3050E8002F00E006E022F068
:102DE000100240E80023002BF3D1CDE705062BD5D8
:102DF000150629D594F841002128C9D1A068B0F55D
:102E0000805F01D12069B0B1206A411C2162216834
:102E100000784860E08C401E0004000CE084B7D1CC
:102E20002068C16821F08001C1602068C16841F05C
:102E30004001C160F8BD206A0088C0F30800486006
:102E4000206A801C2062E5E74006F3D55006F1D5E4
:102E5000CA68204622F04002CA6084F8413000F07F
:102E6000C4F9F8BD0F42000870B5040004D094F80E
:102E70004100002510B106E0012070BD84F84050EB
:102E8000204600F023F8242084F841002068C1681F
:102E900021F40051C160204601F048FA2068016920
:102EA00021F4904101612068416921F02A014161CA
:102EB0002068C16841F40051C1606564202084F835
:102EC000410084F842006563002070BD2DE9F041A7
:102ED00086B0044614216846FDF726FA4648DFF816
:102EE00014C123680024444914380225032607220C
:102EF000424F63451CD10B6843F010030B60096817
:102F000001F010010591016841F0010101600068C4
:102F1000029400F0010005907002CDE90005CDE9B2
:102F2000036269463846FEF77FFA06B0BDE8F081D5
:102F3000DFF8CCC0634522D12F49091F0B6843F449
:102F400000330B60096801F400310591016841F01C
:102F5000010101600068029400F0010005900C205E
:102F6000CDE90005CDE9036269463846FEF75CFA13
:102F7000002205212620FEF701FD262037E0214A08
:102F80009342D2D10A6842F020020A60096801F037
:102F900020010591016841F004010160016801F020
:102FA00004010591016841F001010160006802AA75
:102FB00000F0010005904020CDE900054FF0080821
:102FC00082E8500169461048FEF72EFA4FF480500F
:102FD000CDE9000502AA694682E850013846FEF7AD
:102FE00023FA002207214720FEF7C8FC4720FEF7FE
:102FF000B7FC9AE70010014044380240000002404C
:103000000044004000140140000802402DE9F84F40
:10301000044690F842009A4616460D46202802D0F3
:103020000220BDE8F88FB5B1AEB100206064222166
:1030300084F842102063FEF7F1FAA6858146E68502
:10304000A0684FF480582027404501D1206920B165
:103050002E46002529E00120E3E7002625E04B4627
:10306000002220212046CDF800A001F000FA18B17E
:1030700084F842700320D4E726B1A06840451AD0F6
:1030800038B108E020684068C0F3080025F8020B5A
:1030900008E0206978B12068406800F07F0000BF38
:1030A00006F8010BE08D401EE085E08D0028D6D1AA
:1030B00084F84270B5E720684068F1E790F8423044
:1030C000202B01D00220704721B11AB100230363E5
:1030D00001F0B2B90120704710B50B4A0168914266
:1030E0000AD10121094802F0D7FBBDE810400122B6
:1030F00006490748FFF7E2BF064A914203D1BDE8FF
:10310000104001F089BE10BD00440040480000207E
:10311000B0050020001401402DE9F843044690F862
:103120004100984616460D46202802D00220BDE8F0
:10313000F88385B17EB100206064212084F84100CD
:10314000FEF76CFAA6848146E684A0682027B0F5D5
:10315000805F02D003E00120E9E7206910B12E462C
:1031600000250EE000260CE08021204601F07FF9CA
:10317000A8B9C6B116F8010B21684860E08C401E62
:10318000E084E08C4B464FF00002CDF80080002830
:10319000EAD14FF04001204601F069F940B184F8CE
:1031A00041700320C3E735F8020BC0F30800E3E7E2
:1031B00084F841700020BAE790F84130202B01D00C
:1031C0000220704779B172B101628284C284002109
:1031D0004164212180F841100068C16841F08001FC
:1031E000C16000207047012070477047FEE7000073
:1031F0007FB500241448009401940294114903946B
:10320000C0E9001484600461047680F820400F490E
:10321000C0E90A140125C561C46080F830404561E9
:10322000FDF7FDFD08B1FDF743FDCDE90045694619
:1032300005480294FDF73EFD002801D0FDF738FD5A
:103240007FBD000000200140200300200100000F8E
:10325000094808B5016841F4800101600068002256
:1032600000F48000009005213820FEF787FBBDE8C0
:1032700008403820FEF774BB3038024010B58EB0DD
:103280001C220B496846FDF736F80021684602F01B
:10329000F2FC084C06491C2260611C3107A8FDF7AE
:1032A0002AF8002107A802F0E6FCA0610EB010BDCC
:1032B000C46C00080000002070B586B01421684678
:1032C000FDF732F82A480024016841F080010160CE
:1032D000016801F080010591016841F0040101607D
:1032E000016801F004010591016841F001010160EC
:1032F000016801F001010591016841F002010160DE
:1033000000681C4E00F002000590002203213046A8
:10331000FEF77FF901224FF490713046FEF779F9FC
:1033200040F2231000900125CDE901546946304652
:103330000394FEF779F80220CDE90005039469466D
:1033400002940D48FEF770F8302000904FF40410FE
:10335000CDE9010569460948FEF766F80022062115
:103360001720FEF70BFB1720FEF7FAFA06B070BD28
:1033700030380240000802400000024000040240D1
:103380000D4810B50B4901600C49416000214FF414
:1033900080428160C0E9031241618161C1610162C3
:1033A000FEF742F9002803D0BDE81040FDF780BCCD
:1033B00010BD0000005C0040C8030020A086010092
:1033C000094810B5074901600621416040F6FF71C8
:1033D0008160FEF737FA002803D0BDE81040FDF702
:1033E00067BC10BD003000401C04002010B586B042
:1033F00014216846FCF798FF1B48002419490594DE
:10340000C0E900147F218160FF21C0E903144461F9
:103410008461FEF743FE08B1FDF74AFC8DF80040D9
:103420008DF801408DF802400394012269460E4850
:103430000494FEF7EBFE08B1FDF73AFC01208DF88D
:1034400014008DF815008DF8160002468DF817400F
:1034500005A90548FEF78EFE002801D0FDF728FCDF
:1034600006B010BD00280040280400201FB500242D
:10347000144800940194029411490394C0E9001483
:103480004FF6FF71C0E9024104618461FEF78EFFCF
:1034900008B1FDF70DFC0B48FFF7A2F908B1FDF7E5
:1034A00007FC0120CDE9004002940022694605484E
:1034B0000394FFF703F9002801D0FDF7F9FB1FBDC6
:1034C000004801402005002010B58EB0002407946C
:1034D000089409940A940B941C2168460C94FCF7F8
:1034E00023FF1E484FF0804101604721C0E90114CD
:1034F00040F2E731C0E903148461FEF757FF08B1D9
:10350000FDF7D6FB4FF48050079007A91348FFF74B
:1035100066F808B1FDF7CCFB1048FFF7CAFA08B10E
:10352000FDF7C6FB0B940BA90C480C94FEF700FFAB
:1035300008B1FDF7BDFB6020CDE900040294042230
:10354000694606480494FFF74EFA08B1FDF7B0FB50
:103550000248FFF70BFA0EB010BD0000480400202F
:1035600010B58EB000240794089409940A940B9423
:103570001C2168460C94FCF7D7FE234821490160C2
:103580004721C0E9011440F2E731C0E9031480216A
:103590008161FEF70BFF08B1FDF78AFB4FF4805005
:1035A000079007A91848FFF71AF808B1FDF780FB44
:1035B0001548FFF77EFA08B1FDF77AFB0B940BA9CB
:1035C00011480C94FEF7B4FE08B1FDF771FB6020C2
:1035D000CDE900040294042269460B480494FFF7E5
:1035E00002FA08B1FDF764FB082269460648FFF7B6
:1035F000FAF908B1FDF75CFB0348FFF7B7F90EB025
:1036000010BD0000000400409004002010B586B0FA
:1036100000241748009401940294039404941349DD
:10362000059401604721C0E901144FF6FF71C0E91C
:10363000031480218161FEF7B9FE08B1FDF738FB64
:103640004FF48050009069460948FEF7C8FF08B162
:10365000FDF72EFB049404A905480594FEF768FEC7
:10366000002801D0FDF724FB06B010BD0008004083
:10367000D80400200C4810B50A4901604FF41651D7
:103680004160002181600C22C160C0E904128161A7
:10369000C161FFF7E9FB002803D0BDE81040FDF74A
:1036A00007BB10BD00100140680500200C4810B594
:1036B0000A4901604FF416514160002181600C22DB
:1036C000C160C0E904128161C161FFF7CDFB002830
:1036D00003D0BDE81040FDF7EBBA10BD0044004038
:1036E000B00500200C4810B50A4901604FF416518E
:1036F0004160002181600C22C160C0E90412816137
:10370000C161FFF7B1FB002803D0BDE81040FDF711
:10371000CFBA10BD00140140F8050020FEE7FEE717
:1037200070B5002404F1B000C0B2002100F0DCF953
:103730000021022000F0D8F90021102000F0D4F977
:1037400000250121002000F0CFF96D1CEDB2802D85
:10375000F7D3641CE4B2082CE4D370BDCA0801F0AE
:10376000070301219940044B03EBC003985C61EA15
:103770000000C043985470478D070020CA0801F02C
:10378000070301219940034B03EBC000835C0B430B
:10379000835470478D0700202DE9F041774886B0AB
:1037A000016841F0020101600068012400F002009C
:1037B00005901020CDE90004DFF8C4810225694698
:1037C0004046CDE90245FDF72FFE8026CDE9006495
:1037D0006C4F69463846CDE90245FDF725FE2020AD
:1037E000CDE9000469464046CDE90245FDF71CFEDF
:1037F000CDE9006469464046CDE90245FDF714FE77
:10380000012210214046FDF704FF012280213846A5
:10381000FDF7FFFE012220214046FDF7FAFE0122BE
:1038200080214046FDF7F5FE0320009069463846AA
:10383000FDF7FAFD012203213846FDF7EAFE40209C
:10384000514C009069462046FDF7EEFD01224021D3
:103850002046FDF7DEFE012240212046FDF7D9FE7D
:103860006420FDF7A5FD002240212046FDF7D1FE92
:103870006420FDF79DFD012240212046FDF7C9FE91
:103880000021AE2000F030F90021022000F02CF9D8
:103890000021102000F028F90021402000F024F938
:1038A0000021812000F020F90021CF2000F01CF938
:1038B0000021A12000F018F90021C82000F014F91F
:1038C0000021A62000F010F90021A82000F00CF93A
:1038D00000213F2000F008F90021D32000F004F976
:1038E0000021084600F000F90021D52000F0FCF886
:1038F0000021802000F0F8F80021D92000F0F4F831
:103900000021F12000F0F0F80021DA2000F0ECF8BE
:103910000021122000F0E8F80021DB2000F0E4F89C
:103920000021402000F0E0F80021202000F0DCF829
:103930000021022000F0D8F800218D2000F0D4F8FA
:103940000021142000F0D0F80021A42000F0CCF8D1
:103950000021A62000F0C8F80021AF2000F0C4F834
:103960000021AF2000F0C0F8FFF7DAFE0021084682
:1039700000F032F806B0BDE8F081000030380240B7
:1039800000000240000802400004024070B5114EE1
:10399000002400BF04F1B000C0B2002100F0A4F880
:1039A0000021084600F0A0F80021102000F09CF84B
:1039B0005FF0000506EBC5000121005D00F094F802
:1039C0006D1CEDB2802DF5D3641CE4B2082CE1D35C
:1039D00070BD00008D07002010B50446B031C8B29C
:1039E000002100F081F8102040EA1410002100F0BE
:1039F0007BF804F00F00BDE8104040F0010000210A
:103A000000F072B82DE9FF4F1D460C468946580755
:103A100000D0012000EBD500690810FB01F0203A2E
:103A200000F0FF0A02F0FF0B002637E00C2D12D049
:103A3000102D16D0182D33D11A490BEBCB0001EB0A
:103A400080004FF00008875D2146380600980CD5AD
:103A5000FFF794FE0BE014480BEB4B0100EB8100E9
:103A6000EFE7124901EB0B10EBE7FFF777FE780663
:103A7000641C070EE4B2A4EB0900A84205D100982B
:103A80004C46401CC0B2009006E008F1010000F076
:103A9000FF08B8F1080FD7D3761CF6B25645C5D348
:103AA000BDE8FF8F807700081C6D0008907100084A
:103AB0002DE9F041984617460E46044600250DE0D4
:103AC000434631462046FFF79DFF0834E4B2782C88
:103AD00002D90024B61CF6B26D1CEDB27A5D002A44
:103AE000EED1BDE8F08100002DE9F0411A4F054606
:103AF00009B1012200E0002280213846FDF789FD4E
:103B0000164E002210213046FDF783FD00240022CE
:103B100020213046FDF77DFD280601D5012200E079
:103B2000002280213046FDF774FD0122202130461D
:103B3000FDF76FFD6806641C050EE4B2082CE6D3A1
:103B4000012210213046FDF764FD3846BDE8F04102
:103B500001228021FDF75DBD000802400000024007
:103B6000002102E00A38C0B2491C0A28FAD209072B
:103B700040EA1160704700002DE9F04104460068FA
:103B80000025C168490618D4C16841F08001C160B0
:103B9000FDF744FD06464FF47A78042707E000BF9E
:103BA000FDF73CFD801B404501D967770125206862
:103BB000C068400601D4002DF2D02846BDE8F0814F
:103BC00070B5044600680025C16821F08001C1601D
:103BD00020688068800606D42046FEF777FB10B187
:103BE000042060770125284670BD000090B0FFF7E3
:103BF000D3FDFCF789FF6A48FDF7DEF9002602F0E5
:103C0000CDFC02F0D1FC02F027FD01F0A7FF01F08E
:103C100041F908216348FEF77BFF04216248FEF763
:103C200077FF624D00274FF055084FF4FA7B604C48
:103C3000DFF87091DFF870A102F048F895F85100B4
:103C400078B185F8517095F8780050B1594885F8E9
:103C5000787090ED000A84ED020A90ED010A84ED7F
:103C6000030A02F0E1FC544801F084FE4C48FDF7E1
:103C7000A3F90A214A48FDF749F94948FDF7CCF86C
:103C800060808DF83880642301220EA94B48FFF72D
:103C900043FA642302220DA948480D97FFF7B6F9AD
:103CA00070B14FF6FF70A0809DF835009DF834107C
:103CB00000EB012080B2A080642818D23EB11CE045
:103CC0009DF835009DF8341000EB0120EBE7002251
:103CD0004FF480713A48FDF79CFC0126322001F038
:103CE0000BF9012211023648FDF793FC05E0012291
:103CF00011023348FDF78DFC00262D49491C481E52
:103D0000FCF74BFF20782169884201DD002200E0AA
:103D1000012220212A48FDF77CFCA28829A16846BF
:103D200000F0FCFB0C236A4610210020FFF7C0FEC8
:103D3000628828A1684600F0F1FB00210C236A4646
:103D40000846FFF7B5FE26A16846226900F0E6FBAB
:103D50000C236A4620210020FFF7AAFEFFF716FE7B
:103D60006188002059450DD940F6B830814240F2B3
:103D7000E73007D2A1F5FA71414340F6C41091FB38
:103D8000F0F080B2D9F80010C863DAF80010886348
:103D90001848FDF757FD012001F061FF4CE70000D6
:103DA0002003002090040020480400204C0600203E
:103DB00000000020400600208D0B00206805002038
:103DC00000080240446973743A2025646D6D202018
:103DD000000000004144433A2025642020000000F8
:103DE00054656D705F546872653A202564432020E5
:103DF000000000001C0400200B4D0C4C1021284634
:103E0000FDF702FC28B120212846FDF7FDFB18B183
:103E100005E02069401C01E02069401E206101206E
:103E200001F01DFFEAE7000000040240000000204E
:103E300010B5FDF737FD02F06FFE012803D0BDE895
:103E4000104002F0FBBD10BD30B593B03021684684
:103E5000FCF76AFA14210CA8FCF766FA1F48002444
:103E6000016841F080510160006800F080501190BD
:103E70001B48016841F4404101600068102100F4D2
:103E8000404011900B2000904FF4803001900120B1
:103E9000CDE903010225CDE905050820CDE907405C
:103EA0004820CDE9090504200B906846FDF740FF46
:103EB00008B172B6FEE70F20CDE90C054FF4805033
:103EC000CDE90E4002210CA81094FDF745FE002814
:103ED00001D072B6FEE713B030BD0000403802409A
:103EE000007000400248016841F4700101607047B1
:103EF00088ED00E00148FEF7A1BC00004804002066
:103F0000F0B502681F4B204C204D214E4FF0804CE5
:103F1000984207D0604505D0A04203D0A84201D006
:103F2000B04203D122F070074A683A43984210D059
:103F300060450ED0A0420CD0A8420AD0B04208D0B2
:103F4000144CA04205D0144CA04202D0134CA04205
:103F500003D122F44074CA6822434C6922F08002E3
:103F600022438C68C4620C688462984201D109695A
:103F70000163016841F004010160012141610260B7
:103F8000F0BD0000000001400004004000080040B7
:103F9000000C004000400140004401400048014046
:103FA00010B501F01F030121046A99408C4304629B
:103FB000016A9A401143016210BD10B5846842EA5B
:103FC000032224F47F440A432243826010BD8268A6
:103FD00022F070020A4342F007018160704700003E
:103FE00030B5036A026A22F0010202624268846903
:103FF00024F073050C682C4323F002058B682B43D7
:104000000A4DA8420BD123F00805CB6822F4407278
:104010002B434D6923F0040315438A692A43426008
:10402000846149684163036230BD000000000140C3
:1040300030B5026A036A23F010030362436884699F
:104040000D6824F4E64444EA05248D6822F0200239
:1040500042EA05120B4DA8420ED1CD6822F0800233
:1040600042EA05124D6923F4406343EA85038D69F2
:1040700022F0400243EA850343608461496881631A
:10408000026230BD0000014030B5036A026A22F4CA
:10409000807202624268C46923F4007324F07305DD
:1040A0000C682C438D6843EA05230C4DA8420ED1C1
:1040B000CD6823F4006343EA05234D6922F440529E
:1040C00042EA05128D6923F4806342EA05124260D8
:1040D000C4614968C163036230BD00000000014053
:1040E00030B5046A026A22F4805202624268C369EF
:1040F0000D6823F4E64343EA05238D6824F4005455
:1041000044EA0534064DA84204D14D6922F48042A8
:1041100042EA85124260C36149680164046230BDAD
:104120000000014010B5036A046A24F0010404622F
:10413000846924F0F00444EA021423F00A020A43DA
:104140008461026210BD000070B5056A046A24F043
:10415000010404628469124EB0420ED0B0F1804F67
:104160000BD0104EB04208D00F4EB04205D00F4ECB
:10417000B04202D00E4EB04203D124F003041443E7
:1041800001E044F001041A0724F0F00444EA12624A
:1041900025F00A0301F00A0119438261016270BD32
:1041A000000001400004004000080040000C0040F6
:1041B0000040014010B5036A046A24F01004046250
:1041C000846923F0A00324F4704444EA023243EAF1
:1041D00001118261016210BD30B5046A056A25F0E3
:1041E00010050562856925F4407545EA022222F42E
:1041F00070454FF6FF7202EA033224F0A0032A430F
:10420000A02404EA011119438261016230BD10B596
:10421000806B0021C185FEF7E5FC10BD01680C3103
:1042200051E8002F22F4907241E80023002BF5D1D1
:104230000168143151E8002F22F0010241E8002307
:10424000002BF5D1016B012909D101680C3151E82E
:10425000002F22F0100241E80023002BF5D120218D
:1042600080F8421000210163704708B590F84210B1
:10427000222901D0022008BD82684FF480539A425F
:1042800001D1016921B1816A9A421BD04AB10AE089
:104290000268816A5268C2F308020A80816A891C36
:1042A00008E0026972B10268526802F07F020A7087
:1042B000816A491C8162C18D491E0904090CC185AE
:1042C00003D01BE002685268F1E70168CA6822F077
:1042D0002002CA600168CA6822F48072CA6001685C
:1042E0004A6922F001024A61202180F8421000212F
:1042F0004163026B012A03D0FEF7EEFE002008BDE9
:10430000016301680C3151E8002F22F0100241E8EE
:104310000023002BF5D101680A68D20602D50A688D
:1043200049680091818DFEF75CFCE7E770B50446B3
:1043300000680169E26821F440511143016121697B
:10434000A068E26908436169114308432168CA68AB
:1043500049F20C639A430243CA6020684169A2692A
:1043600021F440711143416131492068884202D0F3
:104370003049884202D1FDF799FC01E0FDF786FC47
:10438000E2690023192164253226B2F5004F6268E4
:1043900028D0A0FB0101930F9200FBF77BFF0146A1
:1043A000B0FBF5F06FF01802504301EB800006EB14
:1043B0000010B0FBF5F000F0F002B1FBF5F002EBFD
:1043C0000012B1FBF5F06FF01803584301EB8000C9
:1043D00006EB0010B0FBF5F000F00F002168104470
:1043E000886070BDA0FB010192185B41FBF752FF92
:1043F0000146B0FBF5F00201B1FBF5F06FF01803D8
:10440000584301EB800006EBC000B0FBF5F000F074
:10441000F80002EB4002B1FBF5F0584301EB8000DD
:1044200006EBC000B0FBF5F000F00700D6E7000097
:10443000001001400014014081628285C285002184
:104440004164222180F84210016921B10168CA68E3
:1044500042F48072CA6001684A6942F001024A610E
:104460000068C16841F02001C160002070472DE95B
:10447000F843984617460D460446089E24E0701CF3
:1044800022D0FDF7CBF8A0EB0800B0421AD8CEB18D
:104490002068C168490717D5802D15D0402D13D04D
:1044A0000168C94309070FD40168002540680090DE
:1044B0002046FFF7B3FE0820606484F840500120D6
:1044C000BDE8F8830320FBE72068006835EA0000B8
:1044D00004D00020B842D2D00020F1E70120F9E753
:1044E0000148FEF781BB0000B00500200148FEF73F
:1044F0007BBB0000F8050020FEE700000FB4054B71
:1045000010B503A9044A029800F0FEF810BC5DF84B
:1045100014FB0000694F0008C80000200FB4084BCE
:1045200010B504A902AA039800F0EEF8044602A907
:10453000002000F06CFC204610BC5DF814FB00006D
:104540000F4E00080907090E002804DB00F1E020E7
:1045500080F80014704700F00F0000F1E02080F8B0
:10456000141D704702E008C8121F08C1002AFAD1C2
:1045700070477047002001E001C1121F002AFBD1E3
:10458000704700002DE9FF5F82B00021DDE90430B3
:10459000020DDDF840B0034318D044F61050A2F2EB
:1045A000FF3242431514119801281FD0A5EB0B00D0
:1045B000401C5FEA000A4FF000064E4FDFF83891CA
:1045C000B046504615D5CAF1000413E011980124F5
:1045D0004AA3012801D16FEA0B010298119AC0E9A0
:1045E0000031C0E9024206B0BDE8F09FCBF1000007
:1045F000DFE704460021404A491842EB0450CDE968
:10460000001012E0E00707D032463B4640464946DC
:10461000FCF7C1F88046894632463B4610461946AB
:10462000FCF7B9F806460F466410002CEAD1DDE924
:104630000401DDE90023BAF1000F06DAFCF7ABF85C
:1046400042464B46FCF7A7F805E0FBF731FF424630
:104650004B46FBF72DFF04460E460022284BFCF785
:1046600025F903D84FF0FF30014607E00022254B23
:1046700020463146FBF775FEFCF7FFF8102409E0F1
:10468000002C0ADB0A220023FBF704FE039B3032D6
:104690001A55641E50EA0102F2D1641C039AC4F157
:1046A00011031444119A012A03D0012208430DD1A9
:1046B0000AE0084304D000204FF0110B119072E77C
:1046C000A3EB0B056D1E0DE05B4504DD4FF0000212
:1046D00005F1010504E003DA4FF00002A5F1010540
:1046E000002AECD002981199C0E90231C0E90045D6
:1046F00079E70000000014400000F03F30000000A7
:104700000000F0430000E03F2DE9FF4F95B09A46CE
:10471000884606460025EEE1252877D10024274665
:10472000F94A0121039400E0044316F8013F203BBD
:1047300001FA03F01042F7D130782A2811D06FF037
:104740002F033078A0F13002092A16D8039A44F0DA
:10475000020402EB820203EB42021044761C039037
:10476000EFE758F8042B0392002A03DA504244F48E
:104770000054039044F00204761C30782E2816D1A1
:1047800016F8010F44F004042A280DD06FF02F0210
:104790003078A0F13003092B09D807EB870302EB2F
:1047A0004303C718761CF3E758F8047B761C30786F
:1047B0006C280FD006DC4C2817D068280DD06A284A
:1047C00014D104E0742810D07A280FD10DE044F4FD
:1047D00000140AE044F4801401E044F440147278B8
:1047E000824202D104F58014761C761C307866284B
:1047F0000BD013DC582877D009DC002875D0452869
:10480000F6D04628F4D047281AD193E118E063285F
:1048100035D0642879D0652812D18BE1702873D007
:1048200008DC6728F1D069286FD06E280DD06F287A
:1048300006D1ACE073282CD0752874D0782853D0DA
:104840005246179990476D1C54E1C4F30250022858
:1048500009D003280DD0D8F8001004280DD00D6021
:1048600008F1040846E1D8F80010EA17C1E900523F
:10487000F6E7D8F800100D80F2E70D70F0E718F8B1
:10488000041B8DF8001000208DF80100EB4601207C
:1048900003E058F804BB4FF0FF3061074FF0000110
:1048A00002D40DE009F101018946B9420FDA8145D0
:1048B000F8DB1BF809100029F4D108E009F1010127
:1048C00089468142FADB1BF809100029F6D10398CA
:1048D0005346A0EB090721463846179A00F080FAA4
:1048E000284400EB090507E044E008E10DE01BF86F
:1048F000010B524617999047B9F10109F7D2534677
:1049000021463846179AF2E039E00A21C4F30252F0
:104910004FF0000B0091022A06D058F8040BC11783
:10492000032A09D00AE023E008F1070020F007027B
:10493000F2E80201904605E000B2C117042A01D155
:1049400040B2C117002906DA0A460021404261EB55
:1049500002012D2202E0220504D52B228DF804202D
:10496000012203E0E20701D02022F7E7914657E059
:104970000A2100E010214FF0000B00910BE0102104
:104980004FF0000B44F004040827009103E00820D6
:104990004FF0000B0090C4F30252022A05D058F8E1
:1049A000040B0021032A08D008E008F1070020F0DA
:1049B0000702F2E80201904603E080B2042A00D127
:1049C000C0B24FF0000922072AD53278702A07D0EA
:1049D000DDF800C08CF0100C5CEA0B0C05D00EE08A
:1049E00040228DF80420012208E050EA010306D09D
:1049F00030238DF804308DF8052002229146009B6B
:104A000083F0080353EA0B030AD150EA010201D1F3
:104A1000620705D530228DF804204FF001097F1E72
:104A20003278582A04D039A20C920CAA02920BE0D8
:104A30003BA2F9E75B46009AFBF72CFC0C9B9B5CC6
:104A4000029A521E0292137050EA0102F2D10298A9
:104A500004A9081A00F1200B600702D524F4803461
:104A600000E001275F4502DDA7EB0B0000E000201E
:104A700000EB0B01009003984944401A0390E003B7
:104A800006D453462146179A039800F0A9F9054425
:104A9000002706E001A85246C05D179990476D1C9B
:104AA0007F1C4F45F6DBE0030CD553462146179A91
:104AB000039800F095F9054404E030205246179918
:104AC00090476D1C0099481E00900029F5DC08E015
:104AD0000298029952460078491C02911799904712
:104AE0006D1CBBF10001ABF1010BF1DC5BE100F0EF
:104AF00065F90544761C307800287FF40DAE19B0B6
:104B00002846BDE8F08F000009280100303132331B
:104B100034353637383961626364656600000000F9
:104B200030313233343536373839414243444546E3
:104B300000000000600700D4062708F1070020F0FD
:104B40000700F0E80223804603F0004C5FEA0C0007
:104B500001D097A009E0200501D596A005E0E00767
:104B600001D095A001E0AFF24C001390307823F013
:104B7000004365280CD006DC452809D046281DD006
:104B800047287FD13BE0662818D067287AD136E0E5
:104B90000021112F01DB112000E0781CCDE900017C
:104BA00004A90CA8FFF7EEFCDDE90D010C9A4FF00B
:104BB000000B07F10109109200914EE04FF0004008
:104BC0000097CDE9011004A90CA8FFF7DBFCDDE993
:104BD0000D020C9B0F994FF0000B91461093009221
:104BE00011B9791C00EB0109B7EB090003D4C0F13E
:104BF000FF3B07F10109A9EB0700019042E0012FFB
:104C000000DA01270021112F01DD112000E03846D4
:104C1000CDE9000104A90CA8FFF7B4FCDDE90D0102
:104C20000C9A00914FF0000BB946109221070FD457
:104C3000009A4A4503DA914601E0A9F10109B9F168
:104C4000010F05DD109AA9F10101515C3029F4D062
:104C5000B84202DA10F1040F03DA0121CDE90110A4
:104C600010E0002803DC8344A9EB000102E0411CB2
:104C7000494500DD8946A0EB0B00401C01904FF038
:104C800000400290200705D40198484502DB4FF010
:104C9000FF30019000208DF84B0002980DF14B077A
:104CA000B0F1004F25D002200C902B200D900298DF
:104CB00000280CDA404202902D200D9007E00A21D6
:104CC0000298FBF78DFC3031029007F8011D0C991A
:104CD000481E0C900029F2DC02980028EFD1791EC2
:104CE0000D980870307800F0200040F0450007F87B
:104CF000020D11A8C01BC01D02901398007800B1CE
:104D0000012000EB0901019801EBE07102980144D8
:104D10000398401A401E0390E00306D453462146F0
:104D2000179A039800F05CF805441398007818B1BE
:104D30005246179990476D1CE00323D553462146F0
:104D4000179A039800F04CF805441BE0BBF1000FE4
:104D500007DB0098584504DD1098179910F80B00F0
:104D600001E0179930205246904701980BF1010B52
:104D7000401E05F10105019004D12E2052461799DD
:104D800090476D1CB9F10001A9F10109DEDC05E0D5
:104D900017F8010B5246179990476D1C0299481E4F
:104DA00002900029F4DC53462146179A03989EE6A8
:104DB0002D0000002B000000200000002DE9F04134
:104DC000044600251E461746880404D405E03946EB
:104DD0002020B0476D1C641EF9D52846BDE8F0813F
:104DE0002DE9F041044600251E469046C80301D532
:104DF000302700E02027880404D505E041463846E6
:104E0000B0476D1C641EF9D52846BDE8F0810A68DC
:104E1000531C0B601070704770B51B4C0026217836
:104E2000242900D166601948656841556D1C65608C
:104E30000278242A07D102794D2A04D140794328E7
:104E400001D10A290AD0C82D01D3C8206060BDE86D
:104E5000704001220C490E48FEF730B90B48502132
:104E60007938FBF761FA09492A46A1F17900FBF785
:104E700042FA06490120793981F85000C8210348D7
:104E80006660FBF751FAE2E734000020C506002017
:104E9000F805002010B500F00BF8BDE81040012225
:104EA00001490248FEF70AB934000020F805002045
:104EB00010B510480024502100F8504F447080F87D
:104EC00028400C48FBF730FA0A480C3840F85E4F8F
:104ED000446004818472C0F80B40C0F80F40A0F811
:104EE00013404475C4828461C46104620148743013
:104EF000448010BD4C06002070B5054600244FF4D8
:104F00007A7603E0304600F005F8641CAC42F9D331
:104F100070BD000010B504460748FDF7E5FA0648E5
:104F20000021026851620068416AA142FCD3BDE8D9
:104F300010400148FDF740BBD8040020044621463C
:104F400001A0FFF7DBFAFAE74552524F5225640DF4
:104F50000A000000014600200A0A62F3070061F31C
:104F60000F20704700BA704713B54FF6FF73012248
:104F700069460248FEF7D0F800981CBD680500207D
:104F80002DE9F0470024804626464FF00109114FD5
:104F90001AE000BFC4EBC40101EB4105D8F80100E1
:104FA00005F1090101446A1D0988104489B20068AD
:104FB000FCF72AFB30B9D8F80100415D09FA01F08D
:104FC000304386B2641CE4B23878A042E2D830465E
:104FD000BDE8F0871C0000202DE9F0410D460600D9
:104FE0004FF0000439D0BDB300F0C2F82A6833682E
:104FF0001F4F41F270719A4204D0BA68821A8A42F5
:1050000000D301246A6873689A4204D0BA68821A8D
:105010008A4200D30124AA6800EE102AB26800EE8A
:10502000902AB4EE600AF1EE10FA04D0BA68821A3F
:105030008A4200D30124EA6800EE102AF26800EEEA
:10504000902AB4EE600AF1EE10FA0AD0BA68801A1B
:10505000884206D3012405E0FFE74FF0FF30BDE8AA
:10506000F08114B100F084F8B8602046F7E7000042
:105070005000002070B50C462DED028B05002ED09F
:105080006CB32A680021012000F058FC20706A6887
:105090000021012000F052FC60709FED128ADFEDCC
:1050A000128AA868F0EE480A01EE100AB0EE680A0B
:1050B00000F048FC80B2FFF74DFF6080E868F0EE3A
:1050C000480A01EE100AB0EE680A00F03BFC80B21C
:1050D000FFF740FFA0800020BDEC028B70BD4FF0B9
:1050E000FF30F9E7000000000AD7233C2DE9F0412A
:1050F000074600F03DF81B49044688463846FFF74E
:105100006BFF184D163D01280ED129463846FFF792
:10511000B1FF20B906222946042000F0CDFB102261
:1051200039464046FBF7E7F80F48B4FBF0F100FBC7
:105130001140002813D10D4EF068A0420FD029462F
:105140003846FFF797FF20B906222946042000F0D1
:10515000B3FB102239464046FBF7CDF8F460BDE8BA
:10516000F0810000BE0C0020C02709005000002084
:1051700001484068704700004800002010B5154CF9
:1051800094F8810001281DD194F8800002281AD2D9
:10519000FFF7EEFFD4F8BC10401AC82812D9FFF769
:1051A000E7FF94F8810048B1B4F8BA1004F1820026
:1051B00001F004FAFFF7DCFFC4F8BC0014F8800F1C
:1051C000401C207010BD03484021BDE810408030D5
:1051D000FBF7AAB8A00B00200EB5C0B10168009182
:1051E000406801909DF80400401C8DF804000520E3
:1051F000FFF7B0FEADF802000921684600F006FB9B
:105200008DF808000921684601F0D8F90EBD4FF06D
:10521000FF300EBD3EB50D4604001AD0684600F0C2
:1052200043F912208DF8040060798DF805000620FE
:10523000FFF790FEADF802008DF808500A2168468D
:1052400000F0E4FA8DF809000A21684601F0B6F989
:105250003EBD4FF0FF303EBD10B59EB0040048D0BB
:10526000684600F021F902208DF8040060798DF87D
:10527000050021A02022D0E90010CDE9021021A1D3
:10528000D1E90001CDE9040121A0D0E90010CDE968
:10529000081022A1D1E90001CDE9060122A10AA846
:1052A000FBF729F8202229A10DF15200FBF723F882
:1052B0000020CDF84A00CDF84E009DF8510040F096
:1052C00002008DF851000020FFF744FEADF84800C1
:1052D0006F20FFF73FFEADF802007321684600F033
:1052E00095FA8DF872007321684601F067F91EB0D7
:1052F00010BD4FF0FF30FAE730303030303030340E
:10530000000000003030303030303032000000001B
:105310003033303330303030000000003033303143
:1053200030313030000000003631393564383665B0
:10533000306534303431343961323963316639366D
:105340006134663339333233000000003466383953
:1053500033643737396135333463386161386665B2
:105360003631336437356432346130320000000046
:105370002DE9F84F4FF0000590465FEA000B2E46EE
:105380000C464FF0FF390DD064B1B8F1000F09D0D1
:10539000584600F0FDFF10EA194703D0A946DFF890
:1053A00004A158E04846BDE8F88F012269465846F6
:1053B00001F023F8F0B39AF80100FF2805D19DF819
:1053C0000000FF2807D055283BD09AF8001050461F
:1053D000012919D035E09AF80010504659B181885A
:1053E00004292ED9B1422CD0FF21217061700221F5
:1053F000AAF8041025E0FF2121706170022181804C
:1054000001218AF800101CE081889DF80020625478
:10541000491C89B2AAF80410042912D96088FFF740
:1054200099FD001D86B2382E01D2042E05D88AF8C7
:10543000009000E00EE0AAF80490BAF80400B04230
:105440000BD09DF800108AF801109AF80210491C40
:105450008AF802106D1CBD42A7DBBAF8041055464D
:1054600004291DD9B1421BD1204600F0CFF9A988EB
:10547000214411F8011C81420BD1A8F8006085F885
:105480000090A5F8049085F8029085F8019000201E
:1054900089E785F80090A5F804906FF0010082E795
:1054A000012080E75000002038B1002101604160F8
:1054B000FF2101704170002070474FF0FF307047AE
:1054C000F0B59DB016460F004FF0000444D0012BFC
:1054D00045D000BF06F105018DB24FF0FF018DF8F8
:1054E00000108DF801104FEA15218DF802108DF88B
:1054F0000350017901F101018DF8041041798DF813
:1055000005104FF000018DF806108DF807304FF0B0
:1055100008010AD100F109018DF8084022460DF179
:105520000900FAF7E8FE04F109016C4626B160189B
:1055300032463946FAF7DFFE291D684600F066F963
:105540006119C870291D684601F038F800280CDA86
:105550006FF001001DB0F0BD4FF0FF30FAE7047AA4
:1055600004EB060101F10601B6E70020F2E70000B6
:105570002DE9F0470F00089C97F800801E4615465D
:105580004FF0FF3A1CD0DEB1D4B138BB1221204815
:10559000FAF7CAFE40464FF00008012806D04FF047
:1055A0000309022805D0052818D119E0C4F80080A5
:1055B00014E01749483101F11600FFF75BFD10B107
:1055C0005046BDE8F08712484030816846F8011F18
:1055D0008089B08006F8019C072020600020F0E759
:1055E0000B486A1E791C8738FAF785FE08486D1E3D
:1055F000C0380749456710F8C03F491C10225A546B
:1056000010F81F19491CC17700F8A19CCEE70000D3
:10561000600C00202DE9F041040028D02089FFF71C
:1056200099FC20816148237A61490678C3F3800C94
:10563000C6F38007022501F1D30267452FD05FEA48
:10564000437C4FF000074FEAC37314D53BB191F888
:10565000D2309F5491F8D2305B1C81F8D230237A3B
:105660009B071CD591F8D2700123BB5412E04FF078
:10567000FF30BDE8F0813BB191F8D2309F5491F8F2
:10568000D2305B1C81F8D230237A9B0707D591F882
:10569000D2309D5491F8D2305B1C81F8D230237AFD
:1056A000C6F3C00CC3F3C007BC450FD067F3C306F5
:1056B00006701B0701D5032300E0042391F8D26094
:1056C000B35491F8D2305B1C81F8D2300778237A3A
:1056D000C7F3001CC3F30016B4450FD066F30417DC
:1056E0000770DB0601D5052300E0062391F8D260A0
:1056F000B35491F8D2305B1C81F8D2300378277A0A
:10570000C3F3401CC7F34016B4450FD066F34513EE
:105710000370BB0601D5072300E0082391F8D2608F
:10572000B35491F8D2305B1C81F8D2304678677A56
:10573000C6F3C00CC7F3C0039C450FD063F3C30688
:1057400046703B0701D50B2300E00C2391F8D26093
:10575000B35491F8D2305B1C81F8D2304378667A2A
:10576000C3F3001CC6F30017BC450FD067F3041346
:105770004370F00601D5092000E00A2091F8D230EC
:10578000985491F8D200401C81F8D20011F8D23F11
:105790000D2098540878401C0870607A00F00700CB
:1057A00081F85C0001F8D25C002062E7560000201E
:1057B000A00B002010B520B313498268A1F58074B6
:1057C0000A6382898A86827B81F83620D0F80F00AE
:1057D0008863B4F83001C834FFF7BCFBA4F8680054
:1057E000206FFFF7BFFB2067227F04F11D000E2111
:1057F0001154207F401C2077042004F8C80C00209E
:1058000010BD4FF0FF3010BDA00C002010B50300FC
:105810004FF0000003D011B10222491E05E0002024
:1058200010BD9C5C521C2044C0B28A42F9D310BD0A
:1058300070B50C46050016D040210C48FAF774FDEF
:105840000A4822462946801CFAF755FD074D0120DB
:10585000803DA5F8BA4085F881008435FFF788FCC3
:10586000A863002070BD4FF0FF3070BD200C0020F9
:1058700010B5084958B109790079491C814204D111
:1058800004484021801EFAF74FFD002010BD4FF064
:10589000FF3010BD220C002070B50C464FF0FF35D4
:1058A00030B10A460146034800F0EAFDA04200D0AC
:1058B000284670BD200D00207FB516460C00054619
:1058C00028D06846FFF7F0FD05208DF80400164843
:1058D000836F8DF805305B1C83678DF808500C20B2
:1058E000FFF738FBADF80200324621460DF1090002
:1058F000FAF701FD10216846FFF788FF8DF80F00C9
:105900001021684600F05AFE040006D56FF0010031
:1059100004B070BD4FF0FF30FAE710216846FFF782
:1059200087FF2046F4E70000A00B002002484168F2
:10593000491C41607047000048000020511AB1FB2B
:10594000F0F0704771EE600A80EE801ABCEEC10A7A
:1059500010EE100A7047002210B109B1007804E07F
:105960004FF0FF307047521CD2B29042FBD800205B
:10597000704700002DE9F0474FF00005A0B05FEA46
:10598000000A2E46ADF87450A9462F461E950ED03B
:10599000FFF7F4FB6F4C1DAA611C04F5C070FFF704
:1059A000E7FC04F59E7838B1801C70D086E04FF09B
:1059B000FF3020B0BDE8F087FFF7DAFB01E06D1C97
:1059C000ADB2BDF874008542F9D36079651C0F282B
:1059D00041D00ADC0E2816D2DFE800F0151A151E99
:1059E00015154E3215154E154E36182848D006DCC2
:1059F000112863D014283FD0162804D13CE0222877
:105A000046D02A2838D002212846FFF703FC55E06B
:105A10002846FFF721FC51E01EA80090BDF8740055
:105A2000E119C21B01AB48460931093AFFF7A0FD55
:105A300008BBEB7901A928461E9AFFF741FD3DE01E
:105A40002846FFF7C9FB39E02846FFF7C5FB284683
:105A5000FFF7E0FD32E02846FFF7BEFBFFF788FBCB
:105A600005464FF4167700BFFFF782FB401BB84294
:105A7000FAD900F0EFF821E02846FFF7F9FE1DE023
:105A80002846FFF7F5FE2846FFF794FE16E01FE0D4
:105A90002846FFF7EDFE412205F108014046FAF7DE
:105AA0002AFC2C4894F8F620F7300F21115494F872
:105AB000F600401C84F8F60005202070254D207863
:105AC000C035062841D2DFE800F0400A131E263414
:105AD000601C0121FFF79EFB6FF0010069E7267053
